:100000000C9434000C943E000C943E000C943E0082
:100010000C943E000C943E000C943E000C943E0068
:100020000C943E000C943E000C943E000C943E0058
:100030000C943E000C943E000C943E000C943E0048
:100040000C943E000C943E000C943E000C943E0038
:100050000C943E000C943E000C943E000C943E0028
:100060000C943E000C943E0011241FBECFEFD8E04C
:10007000DEBFCDBF0E9462000C946F000C940000A4
:1000800084B18C6284B924988CB580618CBD8CB5A8
:1000900083608CBD8CB580648CBD08958EBD0DB41D
:1000A00007FEFDCF08950BC020E000000000000017
:1000B0000000000000002F5F2A35B9F70197009774
:1000C00099F708951F930E9440001FE01EBD0DB4D4
:1000D00007FEFDCF84EF91E00E945300F7CFF89424
:0200E000FFCF50
:00000001FF
