:100000000C9434000C9498010C9446000C94460017
:100010000C9446000C9446000C9446000C94460048
:100020000C9446000C9446000C9446000C94460038
:100030000C9446000C9446000C9446000C94460028
:100040000C9446000C9446000C9446000C94460018
:100050000C9446000C9446000C9446000C94460008
:100060000C9446000C94460011241FBECFEFD8E03C
:10007000DEBFCDBF11E0A0E0B1E001C01D92A53010
:10008000B107E1F70E9455010C94E4010C940000C3
:1000900084B18E6284B924988CB580618CBD8CB596
:1000A00083608CBD8CB580648CBD2A9A2998089594
:1000B0008EBD0DB407FEFDCF8EB508955298E9E6CA
:1000C000F0E080818260808380818E7F8083E89AE7
:1000D000789408951F93782FF894813009F4605E26
:1000E00085E3982F9A95F1F72A988A95F1F76EBDD6
:1000F0000DB407FEFDCF8EB585E38A95F1F7A0E03C
:10010000B0E030E095E31FEF1BC0772361F4603A65
:1001100051F01EBD0DB407FEFDCF8EB5FD01E050C0
:10012000FF4F808309C0FA01EA0FFB1F80818EBD5B
:100130000DB407FEFDCF8EB5892F8A95F1F7119684
:10014000A217B30714F32A9A789480E091E01F91E4
:100150000895EF92FF921F93DF93CF9300D000D0CA
:100160000F92CDB7DEB788EE93E020E931E0F901D8
:100170003197F1F70197D9F711E0198381E061E038
:100180007E010894E11CF11CA70121E00E946A0095
:100190008FE2898381E064E0A70121E00E946A0088
:1001A000198381E062E0A70121E00E946A0083E0F8
:1001B000898381E063E0A70121E00E946A0019833E
:1001C00081E065E0A70121E00E946A0087E0898361
:1001D00081E066E0A70121E00E946A0012E1198334
:1001E0001A831B831C831D8381E06AE0A70125E03D
:1001F0000E946A0019831A831B831C831D8381E07C
:1002000060E1A70125E00E946A0085E0898381E022
:1002100061E1A70121E00E946A008EE1898381E00B
:1002200060E0A70121E00E946A0088EE93E020E9E7
:1002300031E0F9013197F1F70197D9F778940F90F0
:100240000F900F900F900F90CF91DF911F91FF9023
:10025000EF900895299A80E197E220E931E0F901D1
:100260003197F1F70197D9F7299808950F931F93C4
:100270008C0180E061EEA80120E00E946A0080E02D
:1002800060EAA80125E00E946A00789480E49CE975
:10029000FC013197F1F7299A2AE62A95F1F7299876
:1002A0000197F1F71F910F9108950F931F93DF931B
:1002B000CF9300D000D00F92CDB7DEB73D9A0E9409
:1002C00048000E945E000E94A900459A80E29EE4D8
:1002D00020E931E0F9013197F1F70197D9F7459815
:1002E0008FE089838A838B838C838D838E010F5F5C
:1002F0001F4FC8010E943601FCCF85E3982F9A95C5
:10030000F1F72A988A95F1F787E28EBD0DB407FEC2
:10031000FDCF8EB585E38A95F1F780E78EBD0DB4EC
:1003200007FEFDCF8EB585E38A95F1F72A9A0895E9
:100330001F920F920FB60F9211242F933F934F935A
:100340005F936F937F938F939F93AF93BF93EF933D
:10035000FF93F8942998459A80E197E220E931E0EB
:10036000F9013197F1F70197D9F745980E947D017E
:100370007894FF91EF91BF91AF919F918F917F9171
:100380006F915F914F913F912F910F900FBE0F9002
:100390001F90189595E3292F2A95F1F72A989A9599
:1003A000F1F78EBD0DB407FEFDCF8EB585E38A95BE
:1003B000F1F78FEF8EBD0DB407FEFDCF8EB595E33F
:0C03C0009A95F1F72A9A0895F894FFCF5F
:00000001FF
